{
  "_format": "hh-sol-artifact-1",
  "contractName": "ShareToken",
  "sourceName": "contracts/ShareToken.sol",
  "abi": [
    {
      "inputs": [
        {
          "internalType": "string",
          "name": "name",
          "type": "string"
        },
        {
          "internalType": "string",
          "name": "symbol",
          "type": "string"
        },
        {
          "internalType": "uint256",
          "name": "initialSupply",
          "type": "uint256"
        },
        {
          "internalType": "address",
          "name": "_dividendToken",
          "type": "address"
        }
      ],
      "stateMutability": "nonpayable",
      "type": "constructor"
    },
    {
      "anonymous": false,
      "inputs": [
        {
          "indexed": true,
          "internalType": "address",
          "name": "owner",
          "type": "address"
        },
        {
          "indexed": true,
          "internalType": "address",
          "name": "spender",
          "type": "address"
        },
        {
          "indexed": false,
          "internalType": "uint256",
          "name": "value",
          "type": "uint256"
        }
      ],
      "name": "Approval",
      "type": "event"
    },
    {
      "anonymous": false,
      "inputs": [
        {
          "indexed": false,
          "internalType": "uint256",
          "name": "amount",
          "type": "uint256"
        }
      ],
      "name": "DividendDeposited",
      "type": "event"
    },
    {
      "anonymous": false,
      "inputs": [
        {
          "indexed": true,
          "internalType": "address",
          "name": "shareholder",
          "type": "address"
        },
        {
          "indexed": false,
          "internalType": "uint256",
          "name": "amount",
          "type": "uint256"
        }
      ],
      "name": "DividendWithdrawn",
      "type": "event"
    },
    {
      "anonymous": false,
      "inputs": [
        {
          "indexed": true,
          "internalType": "address",
          "name": "previousOwner",
          "type": "address"
        },
        {
          "indexed": true,
          "internalType": "address",
          "name": "newOwner",
          "type": "address"
        }
      ],
      "name": "OwnershipTransferred",
      "type": "event"
    },
    {
      "anonymous": false,
      "inputs": [
        {
          "indexed": true,
          "internalType": "address",
          "name": "from",
          "type": "address"
        },
        {
          "indexed": true,
          "internalType": "address",
          "name": "to",
          "type": "address"
        },
        {
          "indexed": false,
          "internalType": "uint256",
          "name": "value",
          "type": "uint256"
        }
      ],
      "name": "Transfer",
      "type": "event"
    },
    {
      "inputs": [
        {
          "internalType": "address",
          "name": "owner",
          "type": "address"
        },
        {
          "internalType": "address",
          "name": "spender",
          "type": "address"
        }
      ],
      "name": "allowance",
      "outputs": [
        {
          "internalType": "uint256",
          "name": "",
          "type": "uint256"
        }
      ],
      "stateMutability": "view",
      "type": "function"
    },
    {
      "inputs": [
        {
          "internalType": "address",
          "name": "spender",
          "type": "address"
        },
        {
          "internalType": "uint256",
          "name": "amount",
          "type": "uint256"
        }
      ],
      "name": "approve",
      "outputs": [
        {
          "internalType": "bool",
          "name": "",
          "type": "bool"
        }
      ],
      "stateMutability": "nonpayable",
      "type": "function"
    },
    {
      "inputs": [
        {
          "internalType": "address",
          "name": "account",
          "type": "address"
        }
      ],
      "name": "balanceOf",
      "outputs": [
        {
          "internalType": "uint256",
          "name": "",
          "type": "uint256"
        }
      ],
      "stateMutability": "view",
      "type": "function"
    },
    {
      "inputs": [],
      "name": "decimals",
      "outputs": [
        {
          "internalType": "uint8",
          "name": "",
          "type": "uint8"
        }
      ],
      "stateMutability": "view",
      "type": "function"
    },
    {
      "inputs": [
        {
          "internalType": "address",
          "name": "spender",
          "type": "address"
        },
        {
          "internalType": "uint256",
          "name": "subtractedValue",
          "type": "uint256"
        }
      ],
      "name": "decreaseAllowance",
      "outputs": [
        {
          "internalType": "bool",
          "name": "",
          "type": "bool"
        }
      ],
      "stateMutability": "nonpayable",
      "type": "function"
    },
    {
      "inputs": [
        {
          "internalType": "uint256",
          "name": "amount",
          "type": "uint256"
        }
      ],
      "name": "depositDividend",
      "outputs": [],
      "stateMutability": "nonpayable",
      "type": "function"
    },
    {
      "inputs": [
        {
          "internalType": "address",
          "name": "shareholder",
          "type": "address"
        }
      ],
      "name": "dividendOwing",
      "outputs": [
        {
          "internalType": "uint256",
          "name": "",
          "type": "uint256"
        }
      ],
      "stateMutability": "view",
      "type": "function"
    },
    {
      "inputs": [],
      "name": "dividendToken",
      "outputs": [
        {
          "internalType": "contract IERC20",
          "name": "",
          "type": "address"
        }
      ],
      "stateMutability": "view",
      "type": "function"
    },
    {
      "inputs": [
        {
          "internalType": "address",
          "name": "spender",
          "type": "address"
        },
        {
          "internalType": "uint256",
          "name": "addedValue",
          "type": "uint256"
        }
      ],
      "name": "increaseAllowance",
      "outputs": [
        {
          "internalType": "bool",
          "name": "",
          "type": "bool"
        }
      ],
      "stateMutability": "nonpayable",
      "type": "function"
    },
    {
      "inputs": [
        {
          "internalType": "address",
          "name": "",
          "type": "address"
        }
      ],
      "name": "lastDividendPoints",
      "outputs": [
        {
          "internalType": "uint256",
          "name": "",
          "type": "uint256"
        }
      ],
      "stateMutability": "view",
      "type": "function"
    },
    {
      "inputs": [],
      "name": "name",
      "outputs": [
        {
          "internalType": "string",
          "name": "",
          "type": "string"
        }
      ],
      "stateMutability": "view",
      "type": "function"
    },
    {
      "inputs": [],
      "name": "owner",
      "outputs": [
        {
          "internalType": "address",
          "name": "",
          "type": "address"
        }
      ],
      "stateMutability": "view",
      "type": "function"
    },
    {
      "inputs": [],
      "name": "renounceOwnership",
      "outputs": [],
      "stateMutability": "nonpayable",
      "type": "function"
    },
    {
      "inputs": [],
      "name": "symbol",
      "outputs": [
        {
          "internalType": "string",
          "name": "",
          "type": "string"
        }
      ],
      "stateMutability": "view",
      "type": "function"
    },
    {
      "inputs": [],
      "name": "totalDividendPoints",
      "outputs": [
        {
          "internalType": "uint256",
          "name": "",
          "type": "uint256"
        }
      ],
      "stateMutability": "view",
      "type": "function"
    },
    {
      "inputs": [],
      "name": "totalDividends",
      "outputs": [
        {
          "internalType": "uint256",
          "name": "",
          "type": "uint256"
        }
      ],
      "stateMutability": "view",
      "type": "function"
    },
    {
      "inputs": [],
      "name": "totalSupply",
      "outputs": [
        {
          "internalType": "uint256",
          "name": "",
          "type": "uint256"
        }
      ],
      "stateMutability": "view",
      "type": "function"
    },
    {
      "inputs": [
        {
          "internalType": "address",
          "name": "to",
          "type": "address"
        },
        {
          "internalType": "uint256",
          "name": "amount",
          "type": "uint256"
        }
      ],
      "name": "transfer",
      "outputs": [
        {
          "internalType": "bool",
          "name": "",
          "type": "bool"
        }
      ],
      "stateMutability": "nonpayable",
      "type": "function"
    },
    {
      "inputs": [
        {
          "internalType": "address",
          "name": "from",
          "type": "address"
        },
        {
          "internalType": "address",
          "name": "to",
          "type": "address"
        },
        {
          "internalType": "uint256",
          "name": "amount",
          "type": "uint256"
        }
      ],
      "name": "transferFrom",
      "outputs": [
        {
          "internalType": "bool",
          "name": "",
          "type": "bool"
        }
      ],
      "stateMutability": "nonpayable",
      "type": "function"
    },
    {
      "inputs": [
        {
          "internalType": "address",
          "name": "newOwner",
          "type": "address"
        }
      ],
      "name": "transferOwnership",
      "outputs": [],
      "stateMutability": "nonpayable",
      "type": "function"
    },
    {
      "inputs": [],
      "name": "withdrawDividend",
      "outputs": [],
      "stateMutability": "nonpayable",
      "type": "function"
    }
  ],
  "bytecode": "0x60806040523480156200001157600080fd5b506040516200176b3803806200176b833981016040819052620000349162000410565b8383600362000044838262000533565b50600462000053828262000533565b505050620000706200006a620000bf60201b60201c565b620000c3565b6200009533620000836012600a62000714565b6200008f908562000725565b62000115565b600680546001600160a01b0319166001600160a01b039290921691909117905550620007b2915050565b3390565b600580546001600160a01b038381166001600160a01b0319831681179093556040519116919082907f8be0079c531659141344cd1fd0a4f28419497f9722a3daafe3b4186f6b6457e090600090a35050565b6001600160a01b038216620001705760405162461bcd60e51b815260206004820152601f60248201527f45524332303a206d696e7420746f20746865207a65726f206164647265737300604482015260640160405180910390fd5b6200017e60008383620001e9565b80600260008282546200019291906200073f565b90915550506001600160a01b038216600081815260208181526040808320805486019055518481527fddf252ad1be2c89b69c2b068fc378daa952ba7f163c4a11628f55a4df523b3ef910160405180910390a35050565b6001600160a01b03831615620002a55760006200020684620002d7565b90508015620002a3576009546001600160a01b038581166000818152600860205260409081902093909355600654925163a9059cbb60e01b815260048101919091526024810184905291169063a9059cbb906044016020604051808303816000875af11580156200027b573d6000803e3d6000fd5b505050506040513d601f19601f82011682018060405250810190620002a1919062000755565b505b505b6001600160a01b03821615620002d2576009546001600160a01b0383166000908152600860205260409020555b505050565b6001600160a01b0381166000908152600860205260408120546009548291620003009162000779565b9050670de0b6b3a7640000816200032c856001600160a01b031660009081526020819052604090205490565b62000338919062000725565b6200034491906200078f565b9392505050565b634e487b7160e01b600052604160045260246000fd5b600082601f8301126200037357600080fd5b81516001600160401b03808211156200039057620003906200034b565b604051601f8301601f19908116603f01168101908282118183101715620003bb57620003bb6200034b565b81604052838152602092508683858801011115620003d857600080fd5b600091505b83821015620003fc5785820183015181830184015290820190620003dd565b600093810190920192909252949350505050565b600080600080608085870312156200042757600080fd5b84516001600160401b03808211156200043f57600080fd5b6200044d8883890162000361565b955060208701519150808211156200046457600080fd5b50620004738782880162000361565b60408701516060880151919550935090506001600160a01b03811681146200049a57600080fd5b939692955090935050565b600181811c90821680620004ba57607f821691505b602082108103620004db57634e487b7160e01b600052602260045260246000fd5b50919050565b601f821115620002d257600081815260208120601f850160051c810160208610156200050a5750805b601f850160051c820191505b818110156200052b5782815560010162000516565b505050505050565b81516001600160401b038111156200054f576200054f6200034b565b6200056781620005608454620004a5565b84620004e1565b602080601f8311600181146200059f5760008415620005865750858301515b600019600386901b1c1916600185901b1785556200052b565b600085815260208120601f198616915b82811015620005d057888601518255948401946001909101908401620005af565b5085821015620005ef5787850151600019600388901b60f8161c191681555b5050505050600190811b01905550565b634e487b7160e01b600052601160045260246000fd5b600181815b80851115620006565781600019048211156200063a576200063a620005ff565b808516156200064857918102915b93841c93908002906200061a565b509250929050565b6000826200066f575060016200070e565b816200067e575060006200070e565b8160018114620006975760028114620006a257620006c2565b60019150506200070e565b60ff841115620006b657620006b6620005ff565b50506001821b6200070e565b5060208310610133831016604e8410600b8410161715620006e7575081810a6200070e565b620006f3838362000615565b80600019048211156200070a576200070a620005ff565b0290505b92915050565b60006200034460ff8416836200065e565b80820281158282048414176200070e576200070e620005ff565b808201808211156200070e576200070e620005ff565b6000602082840312156200076857600080fd5b815180151581146200034457600080fd5b818103818111156200070e576200070e620005ff565b600082620007ad57634e487b7160e01b600052601260045260246000fd5b500490565b610fa980620007c26000396000f3fe608060405234801561001057600080fd5b50600436106101375760003560e01c80636a474002116100b857806395d89b411161007c57806395d89b411461028a578063997664d714610292578063a457c2d71461029b578063a9059cbb146102ae578063dd62ed3e146102c1578063f2fde38b146102d457600080fd5b80636a4740021461022057806370a0823114610228578063715018a614610251578063806985f7146102595780638da5cb5b1461027957600080fd5b80632113342d116100ff5780632113342d146101cf57806323b872dd146101d8578063313ce567146101eb5780633584bf74146101fa578063395093511461020d57600080fd5b806306fdde031461013c578063095ea7b31461015a57806313e2dfc11461017d5780631582358e1461019257806318160ddd146101bd575b600080fd5b6101446102e7565b6040516101519190610d6b565b60405180910390f35b61016d610168366004610dd5565b610379565b6040519015158152602001610151565b61019061018b366004610dff565b610393565b005b6006546101a5906001600160a01b031681565b6040516001600160a01b039091168152602001610151565b6002545b604051908152602001610151565b6101c160095481565b61016d6101e6366004610e18565b610534565b60405160128152602001610151565b6101c1610208366004610e54565b610558565b61016d61021b366004610dd5565b6105c5565b6101906105e7565b6101c1610236366004610e54565b6001600160a01b031660009081526020819052604090205490565b61019061073c565b6101c1610267366004610e54565b60086020526000908152604090205481565b6005546001600160a01b03166101a5565b610144610750565b6101c160075481565b61016d6102a9366004610dd5565b61075f565b61016d6102bc366004610dd5565b6107da565b6101c16102cf366004610e6f565b6107e8565b6101906102e2366004610e54565b610813565b6060600380546102f690610ea2565b80601f016020809104026020016040519081016040528092919081815260200182805461032290610ea2565b801561036f5780601f106103445761010080835404028352916020019161036f565b820191906000526020600020905b81548152906001019060200180831161035257829003601f168201915b5050505050905090565b60003361038781858561088c565b60019150505b92915050565b61039b6109b0565b600081116103f05760405162461bcd60e51b815260206004820152601d60248201527f416d6f756e74206d7573742062652067726561746572207468616e203000000060448201526064015b60405180910390fd5b6006546040516323b872dd60e01b8152336004820152306024820152604481018390526001600160a01b03909116906323b872dd906064016020604051808303816000875af1158015610447573d6000803e3d6000fd5b505050506040513d601f19601f8201168201806040525081019061046b9190610edc565b6104a95760405162461bcd60e51b815260206004820152600f60248201526e151c985b9cd9995c8819985a5b1959608a1b60448201526064016103e7565b80600760008282546104bb9190610f14565b9091555050600254156104fe576002546104dd82670de0b6b3a7640000610f27565b6104e79190610f3e565b600960008282546104f89190610f14565b90915550505b6040518181527f7b6b54c3281a370f03a48f25aefa3e16922458115905ab9e07d6e1233649b04a9060200160405180910390a150565b600033610542858285610a0a565b61054d858585610a84565b506001949350505050565b6001600160a01b038116600090815260086020526040812054600954829161057f91610f60565b9050670de0b6b3a7640000816105aa856001600160a01b031660009081526020819052604090205490565b6105b49190610f27565b6105be9190610f3e565b9392505050565b6000336103878185856105d883836107e8565b6105e29190610f14565b61088c565b60006105f233610558565b9050600081116106385760405162461bcd60e51b81526020600482015260116024820152704e6f206469766964656e64206f77696e6760781b60448201526064016103e7565b600954336000818152600860205260409081902092909255600654915163a9059cbb60e01b81526004810191909152602481018390526001600160a01b039091169063a9059cbb906044016020604051808303816000875af11580156106a2573d6000803e3d6000fd5b505050506040513d601f19601f820116820180604052508101906106c69190610edc565b6107045760405162461bcd60e51b815260206004820152600f60248201526e151c985b9cd9995c8819985a5b1959608a1b60448201526064016103e7565b60405181815233907fee503bee2bb6a87e57bc57db795f98137327401a0e7b7ce42e37926cc1a9ca4d9060200160405180910390a250565b6107446109b0565b61074e6000610c33565b565b6060600480546102f690610ea2565b6000338161076d82866107e8565b9050838110156107cd5760405162461bcd60e51b815260206004820152602560248201527f45524332303a2064656372656173656420616c6c6f77616e63652062656c6f77604482015264207a65726f60d81b60648201526084016103e7565b61054d828686840361088c565b600033610387818585610a84565b6001600160a01b03918216600090815260016020908152604080832093909416825291909152205490565b61081b6109b0565b6001600160a01b0381166108805760405162461bcd60e51b815260206004820152602660248201527f4f776e61626c653a206e6577206f776e657220697320746865207a65726f206160448201526564647265737360d01b60648201526084016103e7565b61088981610c33565b50565b6001600160a01b0383166108ee5760405162461bcd60e51b8152602060048201526024808201527f45524332303a20617070726f76652066726f6d20746865207a65726f206164646044820152637265737360e01b60648201526084016103e7565b6001600160a01b03821661094f5760405162461bcd60e51b815260206004820152602260248201527f45524332303a20617070726f766520746f20746865207a65726f206164647265604482015261737360f01b60648201526084016103e7565b6001600160a01b0383811660008181526001602090815260408083209487168084529482529182902085905590518481527f8c5be1e5ebec7d5bd14f71427d1e84f3dd0314c0f7b2291e5b200ac8c7c3b925910160405180910390a3505050565b6005546001600160a01b0316331461074e5760405162461bcd60e51b815260206004820181905260248201527f4f776e61626c653a2063616c6c6572206973206e6f7420746865206f776e657260448201526064016103e7565b6000610a1684846107e8565b90506000198114610a7e5781811015610a715760405162461bcd60e51b815260206004820152601d60248201527f45524332303a20696e73756666696369656e7420616c6c6f77616e636500000060448201526064016103e7565b610a7e848484840361088c565b50505050565b6001600160a01b038316610ae85760405162461bcd60e51b815260206004820152602560248201527f45524332303a207472616e736665722066726f6d20746865207a65726f206164604482015264647265737360d81b60648201526084016103e7565b6001600160a01b038216610b4a5760405162461bcd60e51b815260206004820152602360248201527f45524332303a207472616e7366657220746f20746865207a65726f206164647260448201526265737360e81b60648201526084016103e7565b610b55838383610c85565b6001600160a01b03831660009081526020819052604090205481811015610bcd5760405162461bcd60e51b815260206004820152602660248201527f45524332303a207472616e7366657220616d6f756e7420657863656564732062604482015265616c616e636560d01b60648201526084016103e7565b6001600160a01b03848116600081815260208181526040808320878703905593871680835291849020805487019055925185815290927fddf252ad1be2c89b69c2b068fc378daa952ba7f163c4a11628f55a4df523b3ef910160405180910390a3610a7e565b600580546001600160a01b038381166001600160a01b0319831681179093556040519116919082907f8be0079c531659141344cd1fd0a4f28419497f9722a3daafe3b4186f6b6457e090600090a35050565b6001600160a01b03831615610d3a576000610c9f84610558565b90508015610d38576009546001600160a01b038581166000818152600860205260409081902093909355600654925163a9059cbb60e01b815260048101919091526024810184905291169063a9059cbb906044016020604051808303816000875af1158015610d12573d6000803e3d6000fd5b505050506040513d601f19601f82011682018060405250810190610d369190610edc565b505b505b6001600160a01b03821615610d66576009546001600160a01b0383166000908152600860205260409020555b505050565b600060208083528351808285015260005b81811015610d9857858101830151858201604001528201610d7c565b506000604082860101526040601f19601f8301168501019250505092915050565b80356001600160a01b0381168114610dd057600080fd5b919050565b60008060408385031215610de857600080fd5b610df183610db9565b946020939093013593505050565b600060208284031215610e1157600080fd5b5035919050565b600080600060608486031215610e2d57600080fd5b610e3684610db9565b9250610e4460208501610db9565b9150604084013590509250925092565b600060208284031215610e6657600080fd5b6105be82610db9565b60008060408385031215610e8257600080fd5b610e8b83610db9565b9150610e9960208401610db9565b90509250929050565b600181811c90821680610eb657607f821691505b602082108103610ed657634e487b7160e01b600052602260045260246000fd5b50919050565b600060208284031215610eee57600080fd5b815180151581146105be57600080fd5b634e487b7160e01b600052601160045260246000fd5b8082018082111561038d5761038d610efe565b808202811582820484141761038d5761038d610efe565b600082610f5b57634e487b7160e01b600052601260045260246000fd5b500490565b8181038181111561038d5761038d610efe56fea26469706673582212208c5f724070266f1a8b04594ad41249bbe0bc5ecbdb7276da3c21dde977057bac64736f6c63430008130033",
  "linkReferences": {},
  "deployedLinkReferences": {}
}