{
  "_format": "hh-sol-artifact-1",
  "contractName": "TradingVault",
  "sourceName": "contracts/TradingVault.sol",
  "abi": [
    {
      "anonymous": false,
      "inputs": [
        {
          "indexed": true,
          "internalType": "address",
          "name": "user",
          "type": "address"
        },
        {
          "indexed": true,
          "internalType": "address",
          "name": "bondContract",
          "type": "address"
        },
        {
          "indexed": false,
          "internalType": "uint256",
          "name": "serialNumber",
          "type": "uint256"
        }
      ],
      "name": "BondDeposited",
      "type": "event"
    },
    {
      "anonymous": false,
      "inputs": [
        {
          "indexed": true,
          "internalType": "address",
          "name": "user",
          "type": "address"
        },
        {
          "indexed": true,
          "internalType": "address",
          "name": "bondContract",
          "type": "address"
        },
        {
          "indexed": false,
          "internalType": "uint256",
          "name": "serialNumber",
          "type": "uint256"
        }
      ],
      "name": "BondWithdrawn",
      "type": "event"
    },
    {
      "anonymous": false,
      "inputs": [
        {
          "indexed": true,
          "internalType": "address",
          "name": "previousOwner",
          "type": "address"
        },
        {
          "indexed": true,
          "internalType": "address",
          "name": "newOwner",
          "type": "address"
        }
      ],
      "name": "OwnershipTransferred",
      "type": "event"
    },
    {
      "anonymous": false,
      "inputs": [
        {
          "indexed": true,
          "internalType": "address",
          "name": "user",
          "type": "address"
        },
        {
          "indexed": true,
          "internalType": "address",
          "name": "token",
          "type": "address"
        },
        {
          "indexed": false,
          "internalType": "uint256",
          "name": "amount",
          "type": "uint256"
        }
      ],
      "name": "TokenDeposited",
      "type": "event"
    },
    {
      "anonymous": false,
      "inputs": [
        {
          "indexed": true,
          "internalType": "address",
          "name": "user",
          "type": "address"
        },
        {
          "indexed": true,
          "internalType": "address",
          "name": "token",
          "type": "address"
        },
        {
          "indexed": false,
          "internalType": "uint256",
          "name": "amount",
          "type": "uint256"
        }
      ],
      "name": "TokenWithdrawn",
      "type": "event"
    },
    {
      "inputs": [
        {
          "internalType": "address",
          "name": "bondContract",
          "type": "address"
        },
        {
          "internalType": "uint256",
          "name": "serialNumber",
          "type": "uint256"
        }
      ],
      "name": "depositBond",
      "outputs": [],
      "stateMutability": "nonpayable",
      "type": "function"
    },
    {
      "inputs": [
        {
          "internalType": "address",
          "name": "tokenAddress",
          "type": "address"
        },
        {
          "internalType": "uint256",
          "name": "amount",
          "type": "uint256"
        }
      ],
      "name": "depositToken",
      "outputs": [],
      "stateMutability": "nonpayable",
      "type": "function"
    },
    {
      "inputs": [
        {
          "internalType": "address",
          "name": "user",
          "type": "address"
        },
        {
          "internalType": "address",
          "name": "tokenAddress",
          "type": "address"
        }
      ],
      "name": "getUserTokenBalance",
      "outputs": [
        {
          "internalType": "uint256",
          "name": "",
          "type": "uint256"
        }
      ],
      "stateMutability": "view",
      "type": "function"
    },
    {
      "inputs": [
        {
          "internalType": "address",
          "name": "user",
          "type": "address"
        },
        {
          "internalType": "uint256",
          "name": "serialNumber",
          "type": "uint256"
        }
      ],
      "name": "hasBondDeposit",
      "outputs": [
        {
          "internalType": "bool",
          "name": "",
          "type": "bool"
        }
      ],
      "stateMutability": "view",
      "type": "function"
    },
    {
      "inputs": [
        {
          "internalType": "address",
          "name": "user",
          "type": "address"
        },
        {
          "internalType": "address",
          "name": "bondContract",
          "type": "address"
        },
        {
          "internalType": "uint256",
          "name": "serialNumber",
          "type": "uint256"
        }
      ],
      "name": "operateBondWithdrawal",
      "outputs": [],
      "stateMutability": "nonpayable",
      "type": "function"
    },
    {
      "inputs": [
        {
          "internalType": "address",
          "name": "user",
          "type": "address"
        },
        {
          "internalType": "address",
          "name": "tokenAddress",
          "type": "address"
        },
        {
          "internalType": "uint256",
          "name": "amount",
          "type": "uint256"
        }
      ],
      "name": "operateWithdrawal",
      "outputs": [],
      "stateMutability": "nonpayable",
      "type": "function"
    },
    {
      "inputs": [],
      "name": "owner",
      "outputs": [
        {
          "internalType": "address",
          "name": "",
          "type": "address"
        }
      ],
      "stateMutability": "view",
      "type": "function"
    },
    {
      "inputs": [],
      "name": "renounceOwnership",
      "outputs": [],
      "stateMutability": "nonpayable",
      "type": "function"
    },
    {
      "inputs": [
        {
          "internalType": "address",
          "name": "newOwner",
          "type": "address"
        }
      ],
      "name": "transferOwnership",
      "outputs": [],
      "stateMutability": "nonpayable",
      "type": "function"
    },
    {
      "inputs": [
        {
          "internalType": "address",
          "name": "",
          "type": "address"
        },
        {
          "internalType": "uint256",
          "name": "",
          "type": "uint256"
        }
      ],
      "name": "userBondDeposits",
      "outputs": [
        {
          "internalType": "bool",
          "name": "",
          "type": "bool"
        }
      ],
      "stateMutability": "view",
      "type": "function"
    },
    {
      "inputs": [
        {
          "internalType": "address",
          "name": "",
          "type": "address"
        },
        {
          "internalType": "address",
          "name": "",
          "type": "address"
        }
      ],
      "name": "userTokenBalances",
      "outputs": [
        {
          "internalType": "uint256",
          "name": "",
          "type": "uint256"
        }
      ],
      "stateMutability": "view",
      "type": "function"
    }
  ],
  "bytecode": "0x608060405234801561001057600080fd5b5061001a3361001f565b61006f565b600080546001600160a01b038381166001600160a01b0319831681178455604051919092169283917f8be0079c531659141344cd1fd0a4f28419497f9722a3daafe3b4186f6b6457e09190a35050565b610a158061007e6000396000f3fe608060405234801561001057600080fd5b50600436106100a95760003560e01c8063515053c611610071578063515053c614610165578063715018a61461017857806373f8fd4b146101805780638da5cb5b146101b9578063d2abee74146101d4578063f2fde38b146101e757600080fd5b80630c053b0c146100ae5780632b51153f146100c3578063338b5dea146100eb5780633da4b86b146100fe57806345f2d1051461012c575b600080fd5b6100c16100bc3660046108c6565b6101fa565b005b6100d66100d1366004610902565b610355565b60405190151581526020015b60405180910390f35b6100c16100f9366004610902565b610383565b6100d661010c366004610902565b600260209081526000928352604080842090915290825290205460ff1681565b61015761013a36600461092c565b600160209081526000928352604080842090915290825290205481565b6040519081526020016100e2565b6100c1610173366004610902565b610508565b6100c16105ca565b61015761018e36600461092c565b6001600160a01b03918216600090815260016020908152604080832093909416825291909152205490565b6000546040516001600160a01b0390911681526020016100e2565b6100c16101e23660046108c6565b6105de565b6100c16101f536600461095f565b610787565b610202610800565b6001600160a01b038316600090815260026020908152604080832084845290915290205460ff1661027a5760405162461bcd60e51b815260206004820152601a60248201527f426f6e64206e6f74206465706f7369746564206279207573657200000000000060448201526064015b60405180910390fd5b6001600160a01b03838116600081815260026020908152604080832086845290915290819020805460ff1916905551630537977b60e41b8152600481018490526024810191909152839182169063537977b090604401600060405180830381600087803b1580156102ea57600080fd5b505af11580156102fe573d6000803e3d6000fd5b50505050826001600160a01b0316846001600160a01b03167f1b6622b92ce16ed648b5b93fe47df1cd4c763fdcafe3281bc1dfd5ff7998a94d8460405161034791815260200190565b60405180910390a350505050565b6001600160a01b038216600090815260026020908152604080832084845290915290205460ff165b92915050565b600081116103d35760405162461bcd60e51b815260206004820152601d60248201527f416d6f756e74206d7573742062652067726561746572207468616e20300000006044820152606401610271565b6040516323b872dd60e01b81523360048201523060248201526044810182905282906001600160a01b038216906323b872dd906064016020604051808303816000875af1158015610428573d6000803e3d6000fd5b505050506040513d601f19601f8201168201806040525081019061044c9190610981565b61048a5760405162461bcd60e51b815260206004820152600f60248201526e151c985b9cd9995c8819985a5b1959608a1b6044820152606401610271565b3360009081526001602090815260408083206001600160a01b0387168452909152812080548492906104bd9084906109b9565b90915550506040518281526001600160a01b0384169033907ff1444b5cad7ce70cb018d1b8edc8618fe303f3c7f034d8d572a6e27facbf2bef906020015b60405180910390a3505050565b604051630537977b60e41b81526004810182905230602482015282906001600160a01b0382169063537977b090604401600060405180830381600087803b15801561055257600080fd5b505af1158015610566573d6000803e3d6000fd5b5050336000818152600260209081526040808320888452825291829020805460ff1916600117905590518681526001600160a01b03881694509192507f9b864b4f862a880bff51342f7085ad151ac52d86cb54e8a4a5a29cf5c0ef15dd91016104fb565b6105d2610800565b6105dc600061085a565b565b6105e6610800565b6001600160a01b038084166000908152600160209081526040808320938616835292905220548111156106525760405162461bcd60e51b8152602060048201526014602482015273496e73756666696369656e742062616c616e636560601b6044820152606401610271565b6001600160a01b038084166000908152600160209081526040808320938616835292905290812080548392906106899084906109cc565b909155505060405163a9059cbb60e01b81526001600160a01b0384811660048301526024820183905283919082169063a9059cbb906044016020604051808303816000875af11580156106e0573d6000803e3d6000fd5b505050506040513d601f19601f820116820180604052508101906107049190610981565b6107425760405162461bcd60e51b815260206004820152600f60248201526e151c985b9cd9995c8819985a5b1959608a1b6044820152606401610271565b826001600160a01b0316846001600160a01b03167f8210728e7c071f615b840ee026032693858fbcd5e5359e67e438c890f59e56208460405161034791815260200190565b61078f610800565b6001600160a01b0381166107f45760405162461bcd60e51b815260206004820152602660248201527f4f776e61626c653a206e6577206f776e657220697320746865207a65726f206160448201526564647265737360d01b6064820152608401610271565b6107fd8161085a565b50565b6000546001600160a01b031633146105dc5760405162461bcd60e51b815260206004820181905260248201527f4f776e61626c653a2063616c6c6572206973206e6f7420746865206f776e65726044820152606401610271565b600080546001600160a01b038381166001600160a01b0319831681178455604051919092169283917f8be0079c531659141344cd1fd0a4f28419497f9722a3daafe3b4186f6b6457e09190a35050565b80356001600160a01b03811681146108c157600080fd5b919050565b6000806000606084860312156108db57600080fd5b6108e4846108aa565b92506108f2602085016108aa565b9150604084013590509250925092565b6000806040838503121561091557600080fd5b61091e836108aa565b946020939093013593505050565b6000806040838503121561093f57600080fd5b610948836108aa565b9150610956602084016108aa565b90509250929050565b60006020828403121561097157600080fd5b61097a826108aa565b9392505050565b60006020828403121561099357600080fd5b8151801515811461097a57600080fd5b634e487b7160e01b600052601160045260246000fd5b8082018082111561037d5761037d6109a3565b8181038181111561037d5761037d6109a356fea264697066735822122062f54d6fc25a5bd88e44be1af32fd853c06f92adad2e6fef2039e47d9056921864736f6c63430008130033",
  "linkReferences": {},
  "deployedLinkReferences": {}
}