{
  "_format": "hh-sol-artifact-1",
  "contractName": "BondToken",
  "sourceName": "contracts/BondToken.sol",
  "abi": [
    {
      "inputs": [
        {
          "internalType": "address",
          "name": "_paymentToken",
          "type": "address"
        }
      ],
      "stateMutability": "nonpayable",
      "type": "constructor"
    },
    {
      "anonymous": false,
      "inputs": [
        {
          "indexed": true,
          "internalType": "uint256",
          "name": "serialNumber",
          "type": "uint256"
        },
        {
          "indexed": true,
          "internalType": "address",
          "name": "owner",
          "type": "address"
        },
        {
          "indexed": false,
          "internalType": "uint256",
          "name": "principal",
          "type": "uint256"
        }
      ],
      "name": "BondIssued",
      "type": "event"
    },
    {
      "anonymous": false,
      "inputs": [
        {
          "indexed": true,
          "internalType": "uint256",
          "name": "serialNumber",
          "type": "uint256"
        },
        {
          "indexed": false,
          "internalType": "uint256",
          "name": "amount",
          "type": "uint256"
        }
      ],
      "name": "BondRepaid",
      "type": "event"
    },
    {
      "anonymous": false,
      "inputs": [
        {
          "indexed": true,
          "internalType": "uint256",
          "name": "serialNumber",
          "type": "uint256"
        },
        {
          "indexed": true,
          "internalType": "address",
          "name": "from",
          "type": "address"
        },
        {
          "indexed": true,
          "internalType": "address",
          "name": "to",
          "type": "address"
        }
      ],
      "name": "BondTransferred",
      "type": "event"
    },
    {
      "anonymous": false,
      "inputs": [
        {
          "indexed": true,
          "internalType": "address",
          "name": "previousOwner",
          "type": "address"
        },
        {
          "indexed": true,
          "internalType": "address",
          "name": "newOwner",
          "type": "address"
        }
      ],
      "name": "OwnershipTransferred",
      "type": "event"
    },
    {
      "inputs": [
        {
          "internalType": "uint256",
          "name": "",
          "type": "uint256"
        }
      ],
      "name": "bonds",
      "outputs": [
        {
          "internalType": "uint256",
          "name": "serialNumber",
          "type": "uint256"
        },
        {
          "internalType": "uint256",
          "name": "principal",
          "type": "uint256"
        },
        {
          "internalType": "uint256",
          "name": "interestRate",
          "type": "uint256"
        },
        {
          "internalType": "uint256",
          "name": "issuanceDate",
          "type": "uint256"
        },
        {
          "internalType": "uint256",
          "name": "maturityDate",
          "type": "uint256"
        },
        {
          "internalType": "address",
          "name": "currentOwner",
          "type": "address"
        },
        {
          "internalType": "bool",
          "name": "isRepaid",
          "type": "bool"
        }
      ],
      "stateMutability": "view",
      "type": "function"
    },
    {
      "inputs": [
        {
          "internalType": "uint256",
          "name": "serialNumber",
          "type": "uint256"
        }
      ],
      "name": "getBondDetails",
      "outputs": [
        {
          "components": [
            {
              "internalType": "uint256",
              "name": "serialNumber",
              "type": "uint256"
            },
            {
              "internalType": "uint256",
              "name": "principal",
              "type": "uint256"
            },
            {
              "internalType": "uint256",
              "name": "interestRate",
              "type": "uint256"
            },
            {
              "internalType": "uint256",
              "name": "issuanceDate",
              "type": "uint256"
            },
            {
              "internalType": "uint256",
              "name": "maturityDate",
              "type": "uint256"
            },
            {
              "internalType": "address",
              "name": "currentOwner",
              "type": "address"
            },
            {
              "internalType": "bool",
              "name": "isRepaid",
              "type": "bool"
            }
          ],
          "internalType": "struct BondToken.Bond",
          "name": "",
          "type": "tuple"
        }
      ],
      "stateMutability": "view",
      "type": "function"
    },
    {
      "inputs": [
        {
          "internalType": "address",
          "name": "owner",
          "type": "address"
        }
      ],
      "name": "getBondsByOwner",
      "outputs": [
        {
          "internalType": "uint256[]",
          "name": "",
          "type": "uint256[]"
        }
      ],
      "stateMutability": "view",
      "type": "function"
    },
    {
      "inputs": [
        {
          "internalType": "address",
          "name": "to",
          "type": "address"
        },
        {
          "internalType": "uint256",
          "name": "principal",
          "type": "uint256"
        },
        {
          "internalType": "uint256",
          "name": "interestRate",
          "type": "uint256"
        }
      ],
      "name": "issueBond",
      "outputs": [
        {
          "internalType": "uint256",
          "name": "",
          "type": "uint256"
        }
      ],
      "stateMutability": "nonpayable",
      "type": "function"
    },
    {
      "inputs": [],
      "name": "nextSerialNumber",
      "outputs": [
        {
          "internalType": "uint256",
          "name": "",
          "type": "uint256"
        }
      ],
      "stateMutability": "view",
      "type": "function"
    },
    {
      "inputs": [],
      "name": "owner",
      "outputs": [
        {
          "internalType": "address",
          "name": "",
          "type": "address"
        }
      ],
      "stateMutability": "view",
      "type": "function"
    },
    {
      "inputs": [
        {
          "internalType": "address",
          "name": "",
          "type": "address"
        },
        {
          "internalType": "uint256",
          "name": "",
          "type": "uint256"
        }
      ],
      "name": "ownerBonds",
      "outputs": [
        {
          "internalType": "uint256",
          "name": "",
          "type": "uint256"
        }
      ],
      "stateMutability": "view",
      "type": "function"
    },
    {
      "inputs": [],
      "name": "paymentToken",
      "outputs": [
        {
          "internalType": "contract IERC20",
          "name": "",
          "type": "address"
        }
      ],
      "stateMutability": "view",
      "type": "function"
    },
    {
      "inputs": [],
      "name": "renounceOwnership",
      "outputs": [],
      "stateMutability": "nonpayable",
      "type": "function"
    },
    {
      "inputs": [
        {
          "internalType": "uint256",
          "name": "serialNumber",
          "type": "uint256"
        }
      ],
      "name": "repayBond",
      "outputs": [],
      "stateMutability": "nonpayable",
      "type": "function"
    },
    {
      "inputs": [],
      "name": "totalBonds",
      "outputs": [
        {
          "internalType": "uint256",
          "name": "",
          "type": "uint256"
        }
      ],
      "stateMutability": "view",
      "type": "function"
    },
    {
      "inputs": [
        {
          "internalType": "uint256",
          "name": "serialNumber",
          "type": "uint256"
        },
        {
          "internalType": "address",
          "name": "to",
          "type": "address"
        }
      ],
      "name": "transferBond",
      "outputs": [],
      "stateMutability": "nonpayable",
      "type": "function"
    },
    {
      "inputs": [
        {
          "internalType": "address",
          "name": "newOwner",
          "type": "address"
        }
      ],
      "name": "transferOwnership",
      "outputs": [],
      "stateMutability": "nonpayable",
      "type": "function"
    }
  ],
  "bytecode": "0x6080604052600160045534801561001557600080fd5b50604051610e02380380610e02833981016040819052610034916100b2565b61003d33610062565b600180546001600160a01b0319166001600160a01b03929092169190911790556100e2565b600080546001600160a01b038381166001600160a01b0319831681178455604051919092169283917f8be0079c531659141344cd1fd0a4f28419497f9722a3daafe3b4186f6b6457e09190a35050565b6000602082840312156100c457600080fd5b81516001600160a01b03811681146100db57600080fd5b9392505050565b610d11806100f16000396000f3fe608060405234801561001057600080fd5b50600436106100cf5760003560e01c8063853394cf1161008c578063b03dcd4011610066578063b03dcd401461027c578063c5367f141461028f578063f263c470146102af578063f2fde38b146102b857600080fd5b8063853394cf1461024f5780638da5cb5b1461026257806395d82d2a1461027357600080fd5b80630436f2f6146100d45780633013ce291461014c578063537977b0146101775780635f1c17c01461018c578063675981b714610226578063715018a614610247575b600080fd5b6100e76100e2366004610ad5565b6102cb565b6040516101439190815181526020808301519082015260408083015190820152606080830151908201526080808301519082015260a0808301516001600160a01b03169082015260c09182015115159181019190915260e00190565b60405180910390f35b60015461015f906001600160a01b031681565b6040516001600160a01b039091168152602001610143565b61018a610185366004610b0a565b610387565b005b6101e661019a366004610ad5565b600260208190526000918252604090912080546001820154928201546003830154600484015460059094015492949391929091906001600160a01b03811690600160a01b900460ff1687565b60408051978852602088019690965294860193909352606085019190915260808401526001600160a01b031660a0830152151560c082015260e001610143565b610239610234366004610b36565b6104da565b604051908152602001610143565b61018a610636565b61023961025d366004610b69565b61064a565b6000546001600160a01b031661015f565b61023960045481565b61018a61028a366004610ad5565b61067b565b6102a261029d366004610b93565b610872565b6040516101439190610bb5565b61023960055481565b61018a6102c6366004610b93565b6108de565b6103166040518060e00160405280600081526020016000815260200160008152602001600081526020016000815260200160006001600160a01b031681526020016000151581525090565b50600090815260026020818152604092839020835160e0810185528154815260018201549281019290925291820154928101929092526003810154606083015260048101546080830152600501546001600160a01b03811660a0830152600160a01b900460ff16151560c082015290565b6000828152600260205260409020600501546001600160a01b031633146103e65760405162461bcd60e51b815260206004820152600e60248201526d2737ba103137b7321037bbb732b960911b60448201526064015b60405180910390fd5b600082815260026020526040902060050154600160a01b900460ff16156104455760405162461bcd60e51b8152602060048201526013602482015272109bdb9908185b1c9958591e481c995c185a59606a1b60448201526064016103dd565b600082815260026020526040902060050180546001600160a01b0319166001600160a01b0383161790553361047a8184610957565b6001600160a01b038083166000818152600360209081526040808320805460018101825590845291832090910187905551919284169186917f0e09938bd446960bdc2e94e4cbc771f9ce9fc1dea3da94389ee068666bb4a52591a4505050565b60006104e4610a2b565b60048054600091826104f583610c0f565b9190505590506040518060e00160405280828152602001858152602001848152602001428152602001426301e1338061052e9190610c28565b81526001600160a01b0380881660208084018290526000604094850181905286815260028083528582208751815587840151600182810191909155888801519282019290925560608801516003808301919091556080890151600483015560a08901516005928301805460c0909b01511515600160a01b026001600160a81b0319909b169190981617989098179095559281529481529284208054918201815584529183209091018390558054916105e583610c0f565b9190505550846001600160a01b0316817f6b215ecf947a0fa0e9e7c3da780dca6ce25884c67bcae5e984a692b1a08350f58660405161062691815260200190565b60405180910390a3949350505050565b61063e610a2b565b6106486000610a85565b565b6003602052816000526040600020818154811061066657600080fd5b90600052602060002001600091509150505481565b610683610a2b565b60008181526002602052604090206005810154600160a01b900460ff16156106e35760405162461bcd60e51b8152602060048201526013602482015272109bdb9908185b1c9958591e481c995c185a59606a1b60448201526064016103dd565b806004015442101561072a5760405162461bcd60e51b815260206004820152601060248201526f109bdb99081b9bdd081b585d1d5c995960821b60448201526064016103dd565b6000612710826002015483600101546107439190610c41565b61074d9190610c58565b826001015461075c9190610c28565b60015460058401546040516323b872dd60e01b81523360048201526001600160a01b0391821660248201526044810184905292935016906323b872dd906064016020604051808303816000875af11580156107bb573d6000803e3d6000fd5b505050506040513d601f19601f820116820180604052508101906107df9190610c7a565b61081c5760405162461bcd60e51b815260206004820152600e60248201526d14185e5b595b9d0819985a5b195960921b60448201526064016103dd565b60058201805460ff60a01b1916600160a01b17905560405183907f04bbc0adb55112d8254a1c9a82b95ef5b0332f0cfa114b4a7777f615d4cd4fe5906108659084815260200190565b60405180910390a2505050565b6001600160a01b0381166000908152600360209081526040918290208054835181840281018401909452808452606093928301828280156108d257602002820191906000526020600020905b8154815260200190600101908083116108be575b50505050509050919050565b6108e6610a2b565b6001600160a01b03811661094b5760405162461bcd60e51b815260206004820152602660248201527f4f776e61626c653a206e6577206f776e657220697320746865207a65726f206160448201526564647265737360d01b60648201526084016103dd565b61095481610a85565b50565b6001600160a01b0382166000908152600360205260408120905b8154811015610a25578282828154811061098d5761098d610c9c565b906000526020600020015403610a1357815482906109ad90600190610cb2565b815481106109bd576109bd610c9c565b90600052602060002001548282815481106109da576109da610c9c565b9060005260206000200181905550818054806109f8576109f8610cc5565b60019003818190600052602060002001600090559055610a25565b80610a1d81610c0f565b915050610971565b50505050565b6000546001600160a01b031633146106485760405162461bcd60e51b815260206004820181905260248201527f4f776e61626c653a2063616c6c6572206973206e6f7420746865206f776e657260448201526064016103dd565b600080546001600160a01b038381166001600160a01b0319831681178455604051919092169283917f8be0079c531659141344cd1fd0a4f28419497f9722a3daafe3b4186f6b6457e09190a35050565b600060208284031215610ae757600080fd5b5035919050565b80356001600160a01b0381168114610b0557600080fd5b919050565b60008060408385031215610b1d57600080fd5b82359150610b2d60208401610aee565b90509250929050565b600080600060608486031215610b4b57600080fd5b610b5484610aee565b95602085013595506040909401359392505050565b60008060408385031215610b7c57600080fd5b610b8583610aee565b946020939093013593505050565b600060208284031215610ba557600080fd5b610bae82610aee565b9392505050565b6020808252825182820181905260009190848201906040850190845b81811015610bed57835183529284019291840191600101610bd1565b50909695505050505050565b634e487b7160e01b600052601160045260246000fd5b600060018201610c2157610c21610bf9565b5060010190565b80820180821115610c3b57610c3b610bf9565b92915050565b8082028115828204841417610c3b57610c3b610bf9565b600082610c7557634e487b7160e01b600052601260045260246000fd5b500490565b600060208284031215610c8c57600080fd5b81518015158114610bae57600080fd5b634e487b7160e01b600052603260045260246000fd5b81810381811115610c3b57610c3b610bf9565b634e487b7160e01b600052603160045260246000fdfea264697066735822122028b555106489c26ba58c6902ce815bfba8413214b7057f9a61eca2b5a6fdcd9564736f6c63430008130033",
  "linkReferences": {},
  "deployedLinkReferences": {}
}